:020000040800F2
:1000000000000220451B0008791100087B11000840
:100010007D1100087F110008811100080000000018
:100020000000000000000000000000008311000834
:1000300085110008000000008711000889110008E0
:10004000951B0008951B0008951B0008951B0008D0
:10005000951B0008951B0008951B0008951B0008C0
:10006000951B0008951B0008951B0008951B0008B0
:10007000951B0008951B0008951B0008951B0008A0
:10008000951B0008951B0008951B0008951B000890
:10009000951B0008951B0008951B0008951B000880
:1000A000951B0008951B0008951B0008951B000870
:1000B000951B0008951B0008951B0008951B000860
:1000C000951B0008951B0008951B0008951B000850
:1000D000951B0008951B0008951B0008951B000840
:1000E000951B0008951B0008951B0008951B000830
:1000F000951B0008951B0008951B0008951B000820
:10010000951B0008951B0008951B0008951B00080F
:10011000951B0008951B0008951B0008951B0008FF
:10012000951B0008951B0008951B0008951B0008EF
:10013000951B0008951B0008951B0008951B0008DF
:10014000951B0008951B0008951B0008951B0008CF
:10015000951B0008951B0008951B0008951B0008BF
:10016000951B0008951B0008951B0008951B0008AF
:10017000951B0008951B0008951B00080000000057
:08018000951B0008951B000807
:10018800034613F8012B002AFBD1181A01387047CF
:1001980053B94AB9002908BF00281CBF4FF0FF31E6
:1001A8004FF0FF3000F00CB8ADF1080C6DE904CE4B
:1001B80001F0BEFDDDF804E0DDE9022304B070477C
:1001C800704700BF10B5054C237833B9044B13B101
:1001D8000448AFF300800123237010BD7000002095
:1001E800000000000020000808B5034B1BB10349BC
:1001F8000348AFF3008008BD000000007400002031
:10020800002000080369C268934204D881688A1AEA
:100218001344581E7047981A013870472DE9F8435F
:10022800044688461646C5688768A7EB05099145C0
:1002380009D94068284401F0D3FCBFF35F8F3544E7
:10024800E560BDE8F88340684A46284401F0C8FCE8
:10025800ED1B35442A4608EB0901606801F0C0FC33
:10026800BFF35F8FE560ECE72DE9F8430646884663
:100278001746C5684FF000091AE05B1B5A1EB368A1
:100288005C1B944228BF1446BC4228BF3C46706899
:1002980022464146284401F0A3FCA144A0443F1B48
:1002A8002544B368AB420BD0BFF35F8FF5604FB105
:1002B80033699D42E1D3B2685B1B1A44013ADEE719
:1002C8000025F1E74846BDE8F883000010B5154C55
:1002D800A8220021204601F091FC032323616361D9
:1002E800114AA261114BE3614FF48063236200233A
:1002F800A3626362E36222660D4A62661022A26606
:100308002367E3666367BFF35F8F06E0C3F10F02FD
:100318000849895C034AD15401330F2BF6D9BFF33E
:100328005F8F10BD8C0000201820000844010020B9
:1003380034010020242000082DE9F04704468846AF
:100348009146244B1B78C3B104EB4402214B03EBC9
:10035800C2031F6FDD6EAF4212D80026ED1B4D455C
:1003680028BF4D463DBB2EB104EB4404194B03EBAB
:10037800C4031F673046BDE8F087FFF7A7FFE3E730
:100388001346144A02EBC30ADAF86860F61B4E45B6
:1003980028BF4E46DAF8641032463944404601F028
:1003A8001FFCB044A9EB06093744DAF86830BB42B1
:1003B800D4D10027D2E704EB4402064B03EBC20377
:1003C800596E2A463944404601F00AFC2E442F440F
:1003D800C9E700BF8C00002010B50B46EFF311846D
:1003E8004FF0200181F311881946FFF7A5FF84F328
:1003F800118810BDF8B50F461646184B451C05EB7D
:10040800450503EBC50500EB400003EBC003DC6AC0
:10041800012C11D0022C1CD014B100242046F8BDA8
:100428002846FFF7EFFE8642F8D832463946284676
:10043800FFF7F4FE3446F1E72846FFF7E3FE3446BB
:10044800864228BF0446224639462846FFF7E6FE7C
:10045800E4E72846FFF708FF0446DFE78C000020A2
:10046800F8B504460D461646094B1B786BB1EFF3F9
:1004780011874FF0200181F3118832462946204622
:10048800FFF7B8FF87F31188F8BDFFF71FFFEEE706
:100498008C00002038B505460C460846FFF770FE6C
:1004A800024621462846FFF7DBFF38BD00B583B07A
:1004B80001220DF107010020FFF78EFF012804D16A
:1004C8009DF8070003B05DF804FB4FF0FF30F9E733
:1004D80008B5FFF7EBFF0028FBDB08BDF8B50446BD
:1004E8000D4617461E46184B1B7833B3022C27D8E7
:1004F800EFF3118C4FF0200181F3118894B1124A67
:10050800601C00EB4003DB00D55000EB400002EB21
:10051800C000476004EB440302EBC30216620023E9
:100528009362536204EB4404074B03EBC403069A3B
:10053800DA628CF311880020F8BDFFF7C7FED5E713
:100548004FF0FF30F8E700BF8C00002010B50446DC
:100558008268531C4068834205D820688154A36090
:10056800E3680133E360A26863689A4200D010BD73
:1005780021682069FFF774FFA368984203D04FF001
:10058800FF33E360F3E70023A360F0E72DE9F84FBA
:1005980081460F4615461E46DDF828A00B9A0B46E5
:1005A8004FF0010803E0B3FBF5F308F10108AB4293
:1005B800F9D2B04500D2B04612F0010B18D1BAF109
:1005C800000F15D012F0020F02D0BEB1202400E0B7
:1005D8002024BAF1000F0BD0C24509D90AF1FF3A1D
:1005E80021464846FFF7B2FFD9F80C30002BF0DA65
:1005F800D9F80C30002B25DB012404E03024E8E78F
:10060800013E05FB04F4012EFAD8B7FBF4F39D4232
:10061800F7D900E01C46B7FBF4F304FB1377124A42
:10062800D15C4846FFF792FFD9F80C30002B03DB6A
:10063800B4FBF5F3AC42EDD2BBF1000F02D0BAF136
:10064800000F01D1BDE8F88FBAF1000FFAD0C2450A
:10065800F8D90AF1FF3A20214846FFF777FFD9F881
:100668000C30002BF0DAEDE7382000082DE9F047D0
:1006780082B007468846154699460A9EDDF82CA0A2
:1006880081EAE17CACEBE17C012402E09CFBF5FC17
:1006980001346545FADD4C4500D24C4636B1B8F117
:1006A800000F02DB1AF0040F00D0013E1AF0020F0F
:1006B80002D0B9F1000F03D01AF0010F00D1AEB982
:1006C800FB68002B0FDBB8F1000F1CDB1AF0040FDE
:1006D80020D1FB68002B06DB0AF00303022B1ED097
:1006E800FB68002B2DDA02B0BDE8F087002EE7D0BA
:1006F800A642E5D9013E20213846FFF727FFFB68CF
:10070800002BF3DADCE7C8F100082D213846FFF7A3
:100718001DFFDEE72B213846FFF718FFD9E7B9F1AF
:10072800000FDDD1002EDBD0002ED9D0A642D7D9BC
:10073800013E30213846FFF709FFFB68002BF3DA4A
:10074800CEE7CDF804A000964B462A4641463846E7
:10075800FFF71CFFC7E70000F0B599B006460C4646
:10076800154603AB13934023149300231593179056
:1007780016938BE00020012211E040F001000134C3
:100788000CE040F00200013408E040F004000134BD
:1007980004E040F00800013400E0002212B323789E
:1007A800233B0D2BF9D801A151F823F09B07000832
:1007B800A3070008A3070008A3070008A307000869
:1007C800A3070008A3070008A30700089307000869
:1007D800A307000883070008A3070008A307000869
:1007E8008B0700082378A3F13001C9B2092907D87B
:1007F800013402EB820203EB4203A3F13002F1E77A
:100808002E2B02D00023217814E00134002306E0C7
:10081800013403EB830301EB4301A1F13003217899
:10082800A1F1300C5FFA8CFCBCF1090FF0D9EAE7B2
:1008380014F8011F6C29FBD06829F9D025296DD03F
:1008480020D378291ED858291CD35839202919D8DB
:10085800DFE801F03D18181818181818181818119A
:100868002718181818181818181818185718184882
:10087800183218183D002B681A1D2A60197813A819
:10088800FFF764FE0134169B002B4CDB14F8011BA8
:10089800002948D025293FF46DAF13A8FFF756FE6D
:1008A800F1E729680F1D2F600968019000920A225C
:1008B80013A8FFF7DBFEE5E729680F1D2F6009681D
:1008C800019000920A2213A8FFF760FEDAE7296870
:1008D8000F1D2F60096801900092102213A8FFF7DE
:1008E80055FECFE72B681A1D2A601F6817F8011BF1
:1008F8000029C7D013A8FFF729FE169B002BF5DAAD
:10090800C0E72B681A1D2A60196800230193082381
:100918000093102213A8FFF739FEB3E7252113A887
:10092800FFF714FEAEE7169B002B05DD159A32B9CA
:10093800159A169B13441693169819B0F0BD03A97F
:100948003046FFF78DFDF3E70EB400B582B003AB78
:1009580053F8041B019301AAFFF7FEFE02B05DF8ED
:1009680004EB03B0704700B586460A7803789A42CC
:1009780015D00022104600E00132012811D1092AC1
:100988000FD88B5C202B0CD00A2B0AD00D2B08D04B
:100998003BB11EF802C09C45EED00020ECE70122D6
:1009A800E8E75DF804FB8446881A00238A4215D2DA
:1009B80000B51CF802E00CF803E0013301328A426A
:1009C800F7D303E000220CF803200133FF2BF9D9F9
:1009D8005DF804FB00220CF803200133FF2BF9D942
:1009E8007047002300E00133C25C0D2A03D00A2AB5
:1009F80001D08B42F7D38B4201D2184670474FF093
:100A0800FF30704700B54FF0000E734600E0013329
:100A1800714509D0FF2B07D810F803C0BCF1200F8F
:100A2800F5D10EF1010EF2E7B3F5807F03D0136024
:100A380000205DF804FB1020FBE730B4002803DB3E
:100A480001230025044604E0404202230125F9E77A
:100A5800013394FBF2F4002CFAD1CC54013B90FB07
:100A6800F2F402FB14003030C85420461C46013B07
:100A7800002CF4D10DB12D230B7030BC7047A0F1C0
:100A88003003DBB2092B02D80B7000207047A0F1AD
:100A98004103DBB2052B03D83738087000207047B4
:100AA800A0F16103DBB2052B03D85738087000208A
:100AB800704711207047092803D83030087000208B
:100AC8007047A0F10A03DBB2052B03D83730087052
:100AD800002070471020704708B500F047FA0A4810
:100AE80000F054FA094800F051FA094800F04EFAAB
:100AF8000023084A136003E0074A0021D154013358
:100B0800FF2BF9D908BD00BF48200008242400089D
:100B18009020000848060020440500202DE9F041F7
:100B280082B0374B1B6801AAC3F580713548184459
:100B380000F01EFA019911B9334B1B7863B1324B9F
:100B480000221A702E4B1A68114419602D48FFF7BD
:100B580048FFB0F1000802DA02B0BDE8F08100F009
:100B680001FA05464FF0FF37002400E0274604EB62
:100B7800C40305EBC30655F83300F0B1B7F1FF3FE6
:100B88001BD12049FFF7EFFEA8B173681D489847AD
:100B98000028EBD01D4800F0F9F91A4800F0F6F9E2
:100BA8001B4800F0F3F906F1080000F0EFF91948C6
:100BB80000F0ECF9DAE70134D9E7B8F1000F02D018
:100BC800B7F1FF3F10D00E4C08F1010221680D4823
:100BD800FFF7E9FE2060003818BF01200A4B1870A3
:100BE8000D4800F0D3F9B7E7054B1B68022BEAD98B
:100BF8000A4800F0CBF9074800F0C8F9E3E700BF5E
:100C080048060020440500204406002094200008DF
:100C18009C2000082424000890200008A420000834
:100C2800F0B585B0074616460024039403AAFFF7DB
:100C3800E9FE0546039AB95C234608E003F1100073
:100C48000DEB000404F80C1C0133D118795C0A2957
:100C580005D00D2903D0202901D0072BEED9082B68
:100C68000DD015B1284605B0F0BD10336B440022F5
:100C780003F80C2C01A800F08AFF3080F2E7102559
:100C8800F0E72DE9F04182B00646174600230193AC
:100C980001AAFFF7B7FE8046C8B1404602B0BDE8DA
:100CA800F081019B2B440DF10301F05CFFF7E7FE97
:100CB80004E00135032D0DD80028F2D00028F8D122
:100CC8002401A4B29DF803301C44A4B2F1E7002526
:100CD8002C46EFE7112800D080463C80DDE730B590
:100CE80083B005460020044600E00134032C0DD8EB
:100CF8000028FAD1C4F103039B0045FA03F30DEB76
:100D0800040103F00F00FFF7D6FEEEE704F1080335
:100D18000DEB0304002504F8085C684600F036F97A
:100D2800284603B030BD00B583B00A226946FFF7F4
:100D380084FE684600F02AF9002003B05DF804FB41
:100D48000020704708B5044800F020F9034800F077
:100D58001DF9002008BD00BFB820000824240008A1
:100D680070B5002414E00C4EE50004EBC402D30077
:100D7800F05800F00BF9094800F008F92B19D800D1
:100D88000830304400F002F9054800F0FFF801345B
:100D9800062CE8D9002070BDC0210008D02000082A
:100DA8002424000830B583B00DF106020121FFF7B5
:100DB80037FF0446A0B9BDF90630042B5CD8DFE83C
:100DC80003F00312263A4E0000224FF470413148D6
:100DD80000F08AFB304800F0D9F8304800F0D6F827
:100DE800204603B030BD2B4D00224FF470412846F9
:100DF80000F07AFB01224FF48051284600F074FB82
:100E0800274800F0C3F8254800F0C0F8E8E7214D6E
:100E180000224FF47041284600F066FB01224FF48F
:100E2800A041284600F060FB1E4800F0AFF81B48C0
:100E380000F0ACF8D4E7174D00224FF47041284673
:100E480000F052FB01224FF4E041284600F04CFB31
:100E5800154800F09BF8114800F098F8C0E7012207
:100E68004FF470410B4800F03FFB104800F08EF83B
:100E78000A4800F08BF8B3E70D4800F087F8BDF991
:100E88000600FFF750FF0B4800F080F8034800F019
:100E98007DF8A5E7000C0240D420000824240008AF
:100EA800EC2000080021000814210008282100086F
:100EB8003C2100085021000808B54FF4704104484F
:100EC80000F018FB034800F061F8002008BD00BFDF
:100ED800000C02402424000810B582B00DF106026F
:100EE8000121FFF7CEFE044610B1204602B010BD26
:100EF800054800F04BF8BDF80600FFF7F0FE034880
:100F080000F044F8F1E700BF682100082424000835
:100F180010B582B00DF106020121FFF781FE0446EB
:100F280010B1204602B010BD0A4800F02FF8BDF9F4
:100F38000600FFF7F8FE084800F028F8BDF806009C
:100F4800FFF7CDFE054800F021F8054800F01EF82F
:100F5800E7E700BF782100088821000890210008F1
:100F68002424000800487047C0210008002070476A
:100F780070B5054616460024FFF7AAFAC0B22855F0
:100F880001340A28F8D13460002070BD08B5024643
:100F980002490020FFF7D8FC002008BD0024000803
:100FA80000B58DB000220792089209920A920B921E
:100FB8000192244B196B41F010011963196B01F070
:100FC8001001019101990292196B41F00401196312
:100FD800196B01F00401029102990392196B41F017
:100FE80080011963196B01F0800103910399049240
:100FF800196B41F001011963196B01F001010491AA
:1010080004990592196B41F002011963196B01F0FB
:1010180002010591059906921A6B42F008021A63BB
:101028001B6B03F008030693069B4FF2100307930C
:101038000123089307A9044800F060F90DB05DF892
:1010480004FB00BF00380240000C024072B6FEE705
:1010580000B595B03022002108A800F0CFFD00238C
:10106800039304930593069307930193214A116C04
:1010780041F080511164126C02F080520192019A81
:1010880002931D4B1A6842F480421A601B6803F4ED
:1010980080430293029B012308934FF48033099302
:1010A80002230E934FF480020F92082210924FF4FD
:1010B800A872119212930723139308A800F024FA38
:1010C80098B90F23039302230493002305934FF445
:1010D800A05306934FF480530793052103A800F00B
:1010E8007DFC20B915B05DF804FBFFF7AFFFFFF7F3
:1010F800ADFF00BF003802400070004000B583B06B
:1011080000F072F8FFF7A4FFFFF74AFF0749002035
:10111800FFF7C0F900200090034602460146FFF79A
:10112800DDF9FFF7D9FCFFF7F9FCFCE70424000818
:1011380000B583B0002100910C4B5A6C42F48042F8
:101148005A645A6C02F480420092009A01911A6C17
:1011580042F080521A641B6C03F080530193019B88
:10116800072000F06DF803B05DF804FB003802407A
:10117800FEE7FEE7FEE7FEE7FEE7704770477047C9
:1011880008B500F04BF808BD034AD2F8883043F49C
:101198007003C2F88830704700ED00E010B50446CF
:1011A8000E4B1A784FF47A73B3FBF2F30C4A1068BB
:1011B800B0FBF3F000F08EF868B90F2C01D90120CC
:1011C8000AE0002221464FF0FF3000F04BF8054BB3
:1011D8001C60002000E0012010BD00BF04000020BA
:1011E800000000200800002008B50B4B1A6842F4E4
:1011F80000721A601A6842F480621A601A6842F42F
:1012080080721A60032000F01BF80020FFF7C6FF69
:10121800FFF78EFF002008BD003C0240034A11681A
:10122800034B1B780B441360704700BF4C0600202B
:1012380004000020014B1868704700BF4C060020CE
:10124800074AD36823F4E0631B041B0C000200F474
:10125800E060034343F0BF6343F40033D360704757
:1012680000ED00E000B5194BDB68C3F30223C3F1BE
:10127800070CBCF1040F28BF4FF0040C03F1040E57
:10128800BEF1060F18D9033B4FF0FF3E0EFA0CFCD7
:1012980021EA0C0199400EFA03FE22EA0E020A43E3
:1012A80000280BDB1201D2B200F1604000F561406A
:1012B80080F800235DF804FB0023E5E700F00F0049
:1012C8001201D2B2024B1A54F4E700BF00ED00E05D
:1012D80014ED00E00138B0F1807F0BD24FF0E0232D
:1012E8005861054AF02182F82310002098610722EE
:1012F8001A6170470120704700ED00E000230F2BB2
:1013080000F2E98070B582B065E085684FEA430E67
:10131800032404FA0EF425EA0405CC6804FA0EF452
:101328002C438460446824EA02044A68C2F3001229
:101338009A40224342605CE0DC08083450F82420DC
:1013480003F00705AD004FF00F0E0EFA05FE22EA76
:101358000E0E0A69AA4042EA0E0240F824205CE018
:10136800072200E0002202FA0EF22A4302345A4D04
:1013780045F82420594A94686FEA0C0224EA0C05BF
:101388004E6816F4801F01D04CEA0405534CA56042
:10139800E46802EA04054E6816F4001F01D04CEA1E
:1013A80004054E4CE560646802EA04054E6816F4CC
:1013B800003F01D04CEA0405484C6560246822408F
:1013C8004D6815F4803F01D04CEA0402434C22607A
:1013D80001330F2B7DD801229A400C6804EA020CD5
:1013E80032EA0404F4D14C6804F00304013C012CF3
:1013F8008BD94A6802F00302032A09D0C4685D0049
:101408000322AA4024EA02048A68AA402243C2604E
:101418004A6802F00302022A8ED004684FEA430E9B
:10142800032202FA0EF224EA02044A6802F00302D6
:1014380002FA0EF2224302604A6812F4403FC7D013
:1014480000220192264A546C44F480445464526C3D
:1014580002F480420192019A9C08A51C1E4A52F887
:10146800255003F0030E4FEA8E0E0F2202FA0EF2F9
:1014780025EA02051B4A90423FF474AF02F58062E8
:1014880090421AD002F58062904218D002F580622C
:10149800904216D002F58062904214D002F5806224
:1014A800904212D002F58062904210D002F580621C
:1014B80090423FF455AF082255E7012253E7022234
:1014C80051E703224FE704224DE705224BE70622A6
:1014D80049E702B070BD704700380140003C014048
:1014E80000380240000002400AB1816170470904D7
:1014F80081617047436901EA030221EA030141EA75
:101508000241816170470000002800F0E08170B559
:1015180082B00446036813F0010F3BD09F4B9B68D1
:1015280003F00C03042B2CD09C4B9B6803F00C039A
:10153800082B21D06368B3F5803F4FD0B3F5A02FB7
:1015480052D0964B1A6822F480321A601A6822F434
:1015580080221A606368002B50D0FFF76BFE0546A7
:101568008E4B1B6813F4003F14D1FFF763FE401B3A
:101578006428F5D90320B1E1884B5B6813F4800F28
:10158800D8D0864B1B6813F4003F03D06368002B48
:1015980000F09F81236813F0020F54D07F4B9B68A3
:1015A80013F00C0F3ED07D4B9B6803F00C03082B07
:1015B80033D0E368002B68D0794B01221A60FFF71B
:1015C80039FE0546754B1B6813F0020F54D1FFF71F
:1015D80031FE401B0228F5D903207FE16F4A1368CA
:1015E80043F480331360B5E76C4B1A6842F48022E9
:1015F8001A601A6842F480321A60ABE7FFF71AFEE5
:101608000546664B1B6813F4003FC3D0FFF712FE74
:10161800401B6428F5D9032060E1604B5B6813F434
:10162800800FC6D15D4B1B6813F0020F03D0E3682F
:10163800012B40F05081594A136823F0F8032169BF
:1016480043EAC1031360236813F0080F42D06369AB
:101658006BB3534B0122C3F8802EFFF7EBFD054611
:101668004E4B5B6F13F0020F34D1FFF7E3FD401BC5
:101678000228F5D9032031E1484A136823F0F8031A
:10168800216943EAC1031360DDE7454B00221A6074
:10169800FFF7D0FD0546414B1B6813F0020FD2D06F
:1016A800FFF7C8FD401B0228F5D9032016E13C4B83
:1016B8000022C3F8802EFFF7BDFD0546374B5B6F50
:1016C80013F0020F06D0FFF7B5FD401B0228F5D92D
:1016D800032003E1236813F0040F77D02F4B1B6C12
:1016E80013F0805F33D1002301932C4B1A6C42F026
:1016F80080521A641B6C03F080530193019B0125EF
:10170800284B1B6813F4807F23D0A368012B34D0A7
:10171800052B38D0214B1A6F22F001021A671A6F75
:1017280022F004021A67A368002B3DD0FFF782FD60
:1017380006461A4B1B6F13F0020F46D1FFF77AFDCE
:10174800801B41F288339842F3D90320C6E0002574
:10175800D6E7144A136843F480731360FFF76AFDF1
:101768000646104B1B6813F4807FCED1FFF762FD4D
:10177800801B0228F5D90320B0E0084A136F43F014
:1017880001031367CFE7054B1A6F42F004021A678B
:101798001A6F42F001021A67C5E700BF003802401D
:1017A8000000474200700040FFF744FD0646524BD8
:1017B8001B6F13F0020F08D0FFF73CFD801B41F2AE
:1017C80088339842F3D9032088E0EDB9A369002B48
:1017D80000F08380484A926802F00C02082A51D02F
:1017E800022B17D0454B00221A66FFF723FD04464B
:1017F800414B1B6813F0007F42D0FFF71BFD001B15
:101808000228F5D9032069E03B4A136C23F0805382
:101818001364DBE7394B00221A66FFF70BFD054618
:10182800354B1B6813F0007F06D0FFF703FD401B04
:101838000228F5D9032051E0E369226A1343626A5A
:1018480043EA8213A26A5208013A43EA0243E26A6F
:1018580043EA0263284A5360284B01221A66FFF7BD
:10186800E9FC0446244B1B6813F0007F06D1FFF700
:10187800E1FC001B0228F5D903202FE000202DE011
:1018880000202BE0012B2BD01B4B5B6803F480015D
:10189800E269914226D103F03F02216A8A4223D1AC
:1018A800616A47F6C0721A40B2EB811F1ED103F479
:1018B8004031A26A5208013AB1EB024F18D103F045
:1018C8007063E26AB3EB026F14D1002006E00120D6
:1018D8007047012002E0012000E0002002B070BD46
:1018E8000120FBE70120F9E70120F7E70120F5E7F0
:1018F8000120F3E70120F1E70038024000004742E9
:1019080008B5334B9B6803F00C03042B5BD0082B02
:101918005BD12F4B5A6802F03F025B6813F4800FCB
:101928002CD02B4B5868C0F388104FEA401CBCEBF6
:10193800000C6EEB0E0E4FEA8E1343EA9C634FEADF
:101948008C11B1EB0C0163EB0E03DB0043EA51731E
:10195800C90011EB000C43F10003590200234FEAC0
:101968004C2041EADC51FEF713FC194B5B68C3F3CA
:10197800014301335B00B0FBF3F027E0144B5868D8
:10198800C0F388104FEA401CBCEB000C6EEB0E0E47
:101998004FEA8E1343EA9C634FEA8C11B1EB0C01BA
:1019A80063EB0E03DB0043EA5173C90011EB000C33
:1019B80043F10003990200234FEA8C2041EA9C512D
:1019C800FEF7E6FBD1E7034800E0034808BD00BF87
:1019D8000038024000127A000024F400002800F0C9
:1019E8009B8070B50D4604464F4B1B6803F00703F8
:1019F8008B4208D2CBB24C4A1370136803F007032A
:101A08008B4240F08B80236813F0020F17D013F03D
:101A1800040F04D0454A936843F4E0539360236865
:101A280013F0080F04D0414A936843F4604393606D
:101A38003E4A936823F0F003A1680B439360236840
:101A480013F0010F32D06368012B21D09A1E012AAE
:101A580025D9364A126812F0020F61D033498A68D4
:101A680022F0030213438B60FFF7E4FB06462F4B7B
:101A78009B6803F00C036268B3EB820F16D0FFF784
:101A8800D9FB801B41F288339842F0D9032042E009
:101A9800264A126812F4003FE0D101203BE0234AB5
:101AA800126812F0007FD9D1012034E01E4B1B6868
:101AB80003F00703AB4207D9EAB21B4B1A701B6845
:101AC80003F00703AB422DD1236813F0040F06D0AF
:101AD800164A936823F4E053E1680B439360236844
:101AE80013F0080F07D0114A936823F46043216963
:101AF80043EAC1039360FFF703FF0C4B9B68C3F3F2
:101B080003130B4AD35CD8400A4B18600A4B186879
:101B1800FFF744FB002070BD012070470120FAE761
:101B28000120F8E70120F6E7003C024000380240B7
:101B3800282400080000002008000020DFF834D026
:101B48000D480E490E4A002302E0D458C45004330D
:101B5800C4188C42F9D30B4A0B4C002301E01360E4
:101B68000432A242FBD3FFF70FFB00F015F8FFF792
:101B7800C5FA704700000220000000207000002015
:101B88004C2500087000002050060020FEE70A22BD
:101B9800002100F0BDB8000070B50D4D0D4C641B60
:101BA800A4100026A64209D10B4D0C4C00F024FAD3
:101BB800641BA4100026A64205D170BD55F8043B4D
:101BC80098470136EEE755F8043B98470136F2E7A7
:101BD8004425000844250008442500084825000835
:101BE8000A44914200F1FF3300D1704710B511F853
:101BF800014B03F8014F9142F9D110BD024403464D
:101C0800934200D1704703F8011BF9E7012B2DE936
:101C1800F04701D0242B06D900F084F8162303607E
:101C28000020BDE8F087DFF8E4C00D462E4615F821
:101C3800014B1CF8047017F00807F7D12D2C32D18E
:101C48002C780127B51C002B5BD0102B09D1302C28
:101C580007D12C7804F0DF04582C4DD16C78102370
:101C6800023507F1004808F1FF384FF0000EB8FBC5
:101C7800F3F9764603FB198AA4F1300CBCF1090F7D
:101C880016D86446A34224DDBEF1FF3F08D0B14513
:101C98001CD301D1A24519DB06FB03464FF0010E08
:101CA80015F8014BE8E72B2C04BF2C78B51CCAE7C4
:101CB800A4F1410CBCF1190F01D8373CE2E7A4F1BB
:101CC800610CBCF1190F04D8573CDBE74FF0FF3E1D
:101CD800E6E7BEF1FF3F05D122230360464642B93D
:101CE80030469EE707B17642002AF9D0BEF1000FD0
:101CF80000D0691E1160F3E73024002BB1D108230E
:101D0800AFE7302CA5D00A23ABE700BF3924000881
:101D180013460A46014602480068FFF777BF00BF2E
:101D28000C000020014B1868704700BF0C00002011
:101D38002DE9F047089E0D4604460F46002B4AD170
:101D48008A42944665D9B2FA82F343B102FA03FC97
:101D5800C3F120029F4020FA02F217439C404FEA49
:101D68001C4E1FFA8CF5B7FBFEF1220C0EFB117707
:101D780042EA074201FB05F090420AD91CEB020235
:101D880001F1FF3780F01C81904240F2198102393D
:101D98006244121AA4B2B2FBFEF00EFB102244EA0F
:101DA800024400FB05F5A5420AD91CEB040400F126
:101DB800FF3280F00781A54240F204816444023872
:101DC80040EA0140641B00211EB1DC400023C6E943
:101DD8000043BDE8F0878B4208D9002E00F0ED8063
:101DE8000021C6E900050846BDE8F087B3FA83F18B
:101DF800002949D1AB4202D3824200F2F880841A0A
:101E080065EB030201201746002EE2D0C6E9004721
:101E1800DFE702B9FFDEB2FA82F3002B40F09080D0
:101E28008A1A4FEA1C471FFA8CFE0121B2FBF7F50C
:101E380007FB1520220C42EA00420EFB05F09042F7
:101E480008D91CEB020205F1FF3802D2904200F2D9
:101E5800CB804546121AA4B2B2FBF7F007FB10225A
:101E680044EA02440EFB00FEA64508D91CEB040414
:101E780000F1FF3202D2A64500F2BB801046A4EB67
:101E88000E0440EA05409FE7C1F120078B4022FA83
:101E980007FC4CEA030C05FA01F420FA07F3FD40AD
:101EA8004FEA1C492343B5FBF9F81FFA8CFE09FBDE
:101EB80018551C0C44EA054408FB0EF5A54202FA25
:101EC80001F200FA01F00BD91CEB040408F1FF3A07
:101ED80080F08880A54240F28580A8F10208644419
:101EE800641B9DB2B4FBF9F309FB134445EA0444AF
:101EF80003FB0EFEA64508D91CEB040403F1FF35CD
:101F08006CD2A6456AD9023B644443EA0843A3FB62
:101F18000295A4EB0E04AC42C846AE4656D353D045
:101F280056B1B0EB080264EB0E0404FA07F7CA4096
:101F3800CC401743C6E9007418460021BDE8F08775
:101F4800C3F1200102FA03FC20FA01F225FA01F19B
:101F58009D402A434FEA1C471FFA8CFEB1FBF7F05D
:101F680007FB1015110C41EA054100FB0EF58D42E7
:101F780004FA03F408D91CEB010100F1FF382FD251
:101F88008D422DD902386144491B92B2B1FBF7F555
:101F980007FB151142EA014205FB0EF1914208D9EF
:101FA8001CEB020205F1FF3816D2914214D9023D0A
:101FB8006244521A45EA004138E73146304608E79C
:101FC8003946E6E61046FBE64845A9D2B9EB0208D1
:101FD80065EB0C0E013BA3E74546EAE72B4694E781
:101FE8004046D1E7D0467BE7023D624432E70846E7
:101FF8000AE76444023842E7F8B500BFF8BC08BCF9
:102008009E467047F8B500BFF8BC08BC9E467047AE
:102018005465726D696E616C00000000000000007C
:1020280000005454522052454747455300000000D1
:1020380030313233343536373839414243444546F6
:1020480057656C636F6D6520746F207468652043F5
:102058006F6E736F6C696E61746F722C20796F7517
:1020680072206761746577617920746F2074657375
:1020780074696E6720636F646520616E64206861AF
:102088007264776172652E003E2000004572726F9F
:10209800723A200048656C703A200000436F6D6DFD
:1020A800616E64206E6F7420666F756E642E00001A
:1020B8005265757361626C65436F646520302E30BC
:1020C8002E302E3100000000203A20005475726E28
:1020D800696E6720616C6C204C454473206F66669E
:1020E800000000005475726E696E672031204C45FF
:1020F8004473206F6E0000005475726E696E67201D
:1021080032204C454473206F6E0000005475726E87
:10211800696E672033204C454473206F6E000000C1
:102128005475726E696E6720616C6C204C454473FF
:10213800206F6E00596F7520646F206E6F74206871
:102148006176652000000000204C454473206F6EC6
:10215800207468617420626F61726421000000005D
:10216800506172616D657465722069732030780002
:10217800506172616D65746572206973200000009A
:102188002028307800000000290000003B000000F3
:1021980068656C700000000076657200696E7400F6
:1021A8007531366800000000746F67676C65000061
:1021B8006C6564730000000094210008490D000854
:1021C800436F6D6D656E742120596F7520646F20A3
:1021D8006E65656420612073706163652061667453
:1021E8006572207468652073656D69636F6C6F6EC6
:1021F8002E20000000000000000000000000000089
:1022080098210008690D00084C697374732074687C
:102218006520636F6D6D616E647320617661696CB2
:1022280061626C6500000000000000000000000012
:102238000000000000000000000000000000000096
:102248000000000000000000A02100084D0D00085B
:10225800476574207468652076657273696F6E20AF
:10226800737472696E6700000000000000000000CF
:102278000000000000000000000000000000000056
:102288000000000000000000000000000000000046
:10229800A4210008190F0008486F7720746F206781
:1022A80065742061207369676E656420696E743196
:1022B800362066726F6D20706172616D73206C6973
:1022C80073743A20696E74202D3332310000000097
:1022D8000000000000000000A8210008E10E00082E
:1022E800486F7720746F206765742061206865786F
:1022F800207531362066726F6D20746865207061B4
:1023080072616D73206C6973743A20753136682078
:1023180061423132000000000000000000000000AF
:10232800B0210008C10E0008546F67676C65206F04
:102338006E626F617264204C4544730000000000B7
:102348000000000000000000000000000000000085
:102358000000000000000000000000000000000075
:102368000000000000000000B8210008AD0D0008C2
:102378005475726E20746865207370656369666948
:102388006564206E756D626572206F66204C4544E9
:10239800732066726F6D2074686520706172616D5C
:1023A80073203020746F20343A206C6564732033B6
:1023B8000000000000000000000000000000000015
:1023C8000000000000000000000000000000000005
:1023D80000000000000000000000000000000000F5
:1023E80000000000000000000000000000000000E5
:1023F8000000000000000000257300005345474717
:102408004552205265616C2D54696D652D54657275
:102418006D696E616C2053616D706C650D0A00000A
:10242800000000000000000001020304060708097C
:10243800002020202020202020202828282828208C
:102448002020202020202020202020202020202084
:1024580020881010101010101010101010101010EC
:1024680010040404040404040404041010101010DC
:1024780010104141414141410101010101010101A6
:1024880001010101010101010101010110101010F8
:102498001010424242424242020202020202020278
:1024A80002020202020202020202020210101010CC
:1024B80020000000000000000000000000000000F4
:1024C8000000000000000000000000000000000004
:1024D80000000000000000000000000000000000F4
:1024E80000000000000000000000000000000000E4
:1024F80000000000000000000000000000000000D4
:1025080000000000000000000000000000000000C3
:1025180000000000000000000000000000000000B3
:1025280000000000000000000000000000000000A3
:04253800000000009F
:08253C00FCF7FF7F0100000025
:04254400F101000899
:04254800CD010008B9
:10254C000024F40001000000100000001000002026
:10255C00000000000000000000000000000000006F
:10256C00000000000000000000000000000000005F
:10257C00000000000000000000000000000000004F
:10258C00000000000000000000000000000000003F
:10259C00000000000000000000000000000000002F
:1025AC00000000000000000000000000000000001F
:0400000508001B458F
:00000001FF
